S012000074696D65725F746573742E73726563D2
S11300000C942A000C9447000C9447000C9447006D
S11300100C9447000C9447000C9447000C94470040
S11300200C9447000C9447000C9447000C94470030
S11300300C9447000C9447000C9447000C94470020
S11300400C9447000C9447000C9447000C94470010
S11300500C94470011241FBECFE5D4E0DEBFCDBF12
S113006010E0A0E6B0E0ECEEF0E002C005900D92E6
S1130070A236B107D9F720E0A2E6B0E001C01D9294
S1130080A236B207E1F70E9449000C9474000C9464
S113009000000E9450000E9458000E946B00FDCF97
S11300A080E38BBD81E08ABD1FBC8CE08EBD0895CA
S11300B020E00CC037B381E090E0022E02C0880F2C
S11300C0991F0A94E2F7832B87BB2F5F809160000E
S11300D0281780F3089578940E9450000E945800D5
S10F00E089B7806189BFFFCFF894FFCF7F
S10500EC01000D
S9030000FC
