:100000000C942A000C9447000C9447000C94470071
:100010000C9447000C9447000C9447000C94470044
:100020000C9459000C9447000C9447000C94470022
:100030000C9447000C9447000C9447000C94470024
:100040000C9447000C9447000C9447000C94470014
:100050000C94470011241FBECFE5D4E0DEBFCDBF16
:1000600010E0A0E6B0E0E0EFF0E002C005900D92F5
:10007000A036B107D9F720E0A0E6B0E001C01D929C
:10008000A136B207E1F70E9453000C9476000C945D
:1000900000001FBC84E08EBD1DBC1CBC89B7846001
:1000A00089BF789408950E94490087B3816087BB17
:1000B000FFCF1F920F920FB60F9211248F939F9331
:1000C000809160008F5F8093600080916000843039
:1000D00030F098B381E0892788BB109260009F912F
:1000E0008F910F900FBE0F901F901895F894FFCF2F
:00000001FF
