:100000000C942A000C943F000C943F000C943F0089
:100010000C943F000C943F000C943F000C943F0064
:100020000C943F000C943F000C943F000C943F0054
:100030000C943F000C943F000C943F000C943F0044
:100040000C943F000C943F000C943F000C943F0034
:100050000C943F0011241FBECFE5D4E0DEBFCDBF1E
:1000600010E0A0E6B0E0E6E4F2E002C005900D92F8
:10007000A836B107D9F70E94EA000C9421010C942C
:10008000000098B321E030E002C0220F331F8A95B0
:10009000E2F7292B28BB089598B321E030E002C095
:1000A000220F331F8A95E2F72095292328BB089554
:1000B00098B321E030E002C0220F331F8A95E2F7A7
:1000C000292728BB089529B330E0A90102C055951E
:1000D00047958A95E2F7CA0151E08527817090E043
:1000E000089520E080916700281768F43AB381E012
:1000F00090E0022E02C0880F991F0A94E2F7832B2A
:100100008ABB2F5FEFCF089520E08091660028170B
:1001100068F437B381E090E0022E02C0880F991F87
:100120000A94E2F7832B87BB2F5FEFCF0895CF931D
:10013000C82F809164000E946300892BF9F08FEF33
:100140009FE80197F1F700C00000809164000E94D1
:100150006300892B99F0809164000E946300892BD1
:10016000D1F78C2F0E944C008C2F90E0019660916B
:10017000660070E00E94F9000E944100CF9108954E
:10018000CF93C82F809165000E946300892B01F1F5
:100190008FEF9FE80197F1F700C0000080916500A4
:1001A0000E946300892BA1F0809165000E9463008A
:1001B000892BD1F78C2F0E944C006091660070E073
:1001C000CB018C0F911D01970E94F9000E94410004
:1001D000CF9108950E9484000E9471008091600078
:1001E0000E94580080E00E94970080E00E94C000BA
:1001F000F9CF97FB072E16F4009407D077FD09D0AE
:100200000E940D0107FC05D03EF4909581959F4F0B
:100210000895709561957F4F0895AA1BBB1B51E10E
:1002200007C0AA1FBB1FA617B70710F0A61BB70B66
:10023000881F991F5A95A9F780959095BC01CD010B
:060240000895F894FFCFC1
:080246000001020300010402A3
:00000001FF
