:100000000C942A000C943F000C943F000C943F0089
:100010000C943F000C943F000C943F000C943F0064
:100020000C943F000C943F000C943F000C943F0054
:100030000C943F000C943F000C943F000C943F0044
:100040000C943F000C943F000C943F000C943F0034
:100050000C943F0011241FBECFE5D4E0DEBFCDBF1E
:1000600010E0A0E6B0E0E0E7F1E002C005900D92FC
:10007000A636B107D9F70E947D000C94B6000C9407
:10008000000098B321E030E002C0220F331F8A95B0
:10009000E2F7292B28BB089598B321E030E002C095
:1000A000220F331F8A95E2F7292728BB089520E005
:1000B00080916500281768F43AB381E090E0022E41
:1000C00002C0880F991F0A94E2F7832B8ABB2F5F27
:1000D000EFCF089520E080916400281768F437B3CB
:1000E00081E090E0022E02C0880F991F0A94E2F787
:1000F000832B87BB2F5FEFCF08950E946A000E9479
:100100005700809160000E944C0080E00E944100F6
:100110002FEF8FE794E0215080409040E1F700C03E
:10012000000081E00E9441002FEF8FE794E0215012
:1001300080409040E1F700C0000082E00E94410052
:100140002FEF8FE794E0215080409040E1F700C00E
:10015000000083E00E9441002FEF8FE794E02150E0
:1001600080409040E1F700C00000CFCFF894FFCF6F
:060170000001020304027D
:00000001FF
