S01B0000736576656E5365676D656E74446973706C61792E737265633F
S11300000C942A000C943F000C943F000C943F0085
S11300100C943F000C943F000C943F000C943F0060
S11300200C943F000C943F000C943F000C943F0050
S11300300C943F000C943F000C943F000C943F0040
S11300400C943F000C943F000C943F000C943F0030
S11300500C943F0011241FBECFE5D4E0DEBFCDBF1A
S113006010E0A0E6B0E0EEE3F5E002C005900D92EA
S1130070AA36B107D9F70E947E000C949D020C9415
S11300800000CF93DF93CDB7DEB78AE390E0FC01A5
S113009080818AE390E02FEFFC0120838BE390E0E2
S11300A0FC0110820000DF91CF910895CF93DF937C
S11300B000D0CDB7DEB79A8389838BE390E02BE33E
S11300C030E0F901408129813A81205A3F4FF901FA
S11300D02081242BFC01208300000F900F90DF91DE
S11300E0CF910895CF93DF93CDB7DEB78BE390E044
S11300F0FC0110820000DF91CF910895CF93DF932C
S1130100CDB7DEB76E970FB6F894DEBF0FBECDBF86
S11301100E94410080E090E0AAE7B4E48F839887CE
S1130120A987BA8726E636E646E655E46F817885E0
S113013089859A850E940802DC01CB018B879C8704
S1130140AD87BE8720E030E040E85FE36B857C85C7
S11301508D859E850E94820188232CF481E090E0A5
S1130160988B8F873FC020E03FEF4FE757E46B85C4
S11301707C858D859E850E94030218164CF520E02F
S113018030E040E251E46F81788589859A850E9448
S11301900802DC01CB01BC01CD010E948701DC0116
S11301A0CB01988B8F870FC080E791E09A8B898B66
S11301B089899A890197F1F79A8B898B8F85988918
S11301C00197988B8F878F859889892B69F714C03D
S11301D06B857C858D859E850E948701DC01CB0122
S11301E0988B8F878F8598899C8B8B8B8B899C8927
S11301F00197F1F79C8B8B8B1A8219827DC08981C0
S11302009A810E94560080E090E0AAE7B4E48B83D0
S11302109C83AD83BE8326E636E646E655E46B81D1
S11302207C818D819E810E940802DC01CB018D8B33
S11302309E8BAF8BB88F20E030E040E85FE36D89A0
S11302407E898F89988D0E94820188232CF481E015
S113025090E09A8F898F3FC020E03FEF4FE757E44B
S11302606D897E898F89988D0E94030218164CF53A
S113027020E030E040E251E46B817C818D819E81FD
S11302800E940802DC01CB01BC01CD010E94870160
S1130290DC01CB019A8F898F0FC080E791E09C8F9E
S11302A08B8F8B8D9C8D0197F1F79C8F8B8F898D14
S11302B09A8D01979A8F898F898D9A8D892B69F7E9
S11302C014C06D897E898F89988D0E948701DC0115
S11302D0CB019A8F898F898D9A8D9E8F8D8F8D8D6D
S11302E09E8D0197F1F79E8F8D8F0E9472008981F8
S11302F09A8101969A83898389819A810A970CF459
S11303007ECF7ACF0E94B60108F481E008950E945E
S1130310E20188F09F5798F0B92F9927B751B0F0B0
S1130320E1F0660F771F881F991F1AF0BA95C9F775
S113033014C0B13091F00E94FC01B1E008950C9416
S1130340FC01672F782F8827B85F39F0B93FCCF3C9
S1130350869577956795B395D9F73EF490958095F2
S1130360709561957F4F8F4F9F4F0895990F0008A7
S1130370550FAA0BE0E8FEEF16161706E807F90773
S1130380C0F012161306E407F50798F0621B730B0E
S1130390840B950B39F40A2661F0232B242B252B8F
S11303A021F408950A2609F4A140A6958FEF811D32
S11303B0811D089557FD9058440F551F59F05F3F14
S11303C071F04795880F97FB991F61F09F3F79F073
S11303D087950895121613061406551FF2CF4695F5
S11303E0F1DF08C0161617061806991FF1CF869577
S11303F07105610508940895E894BB27662777275B
S1130400CB0197F908950E94B60108F48FEF08957F
S11304100E941B020C948C020E947E0238F00E94FF
S1130420850220F0952311F00C9475020C947B0244
S113043011240C94FD010E94DA0170F3959FC1F31D
S1130440950F50E0551F629FF001729FBB27F00D7E
S1130450B11D639FAA27F00DB11DAA1F649F6627D3
S1130460B00DA11D661F829F2227B00DA11D621F22
S1130470739FB00DA11D621F839FA00D611D221FDC
S1130480749F3327A00D611D231F849F600D211DC0
S1130490822F762F6A2F11249F5750409AF0F1F043
S11304A088234AF0EE0FFF1FBB1F661F771F881FAC
S11304B091505040A9F79E3F510580F00C9475026D
S11304C00C94FD015F3FE4F3983ED4F38695779551
S11304D06795B795F795E7959F5FC1F7FE2B880F52
S11304E0911D9695879597F9089597F99F6780E8E8
S11304F070E060E008959FEF80EC089500240A9472
S11305001616170618060906089500240A941216EA
S11305101306140605060895092E0394000C11F41D
S1130520882352F0BB0F40F4BF2B11F460FF04C0CA
S11105306F5F7F4F8F4F9F4F0895F894FFCF5A
S10D053EC0F9A4B0999282F88090ED
S9030000FC
